{
  "_format": "hh-sol-artifact-1",
  "contractName": "Opensource",
  "sourceName": "contracts/Opensource.sol",
  "abi": [
    {
      "inputs": [
        {
          "internalType": "uint256",
          "name": "_target",
          "type": "uint256"
        },
        {
          "internalType": "uint256",
          "name": "_deadline",
          "type": "uint256"
        }
      ],
      "stateMutability": "nonpayable",
      "type": "constructor"
    },
    {
      "inputs": [
        {
          "internalType": "address",
          "name": "",
          "type": "address"
        }
      ],
      "name": "Contributors",
      "outputs": [
        {
          "internalType": "uint256",
          "name": "",
          "type": "uint256"
        }
      ],
      "stateMutability": "view",
      "type": "function"
    },
    {
      "inputs": [],
      "name": "Manager",
      "outputs": [
        {
          "internalType": "address",
          "name": "",
          "type": "address"
        }
      ],
      "stateMutability": "view",
      "type": "function"
    },
    {
      "inputs": [
        {
          "internalType": "string",
          "name": "_description",
          "type": "string"
        },
        {
          "internalType": "address payable",
          "name": "_receipent",
          "type": "address"
        },
        {
          "internalType": "uint256",
          "name": "_value",
          "type": "uint256"
        }
      ],
      "name": "createRequest",
      "outputs": [],
      "stateMutability": "nonpayable",
      "type": "function"
    },
    {
      "inputs": [],
      "name": "deadline",
      "outputs": [
        {
          "internalType": "uint256",
          "name": "",
          "type": "uint256"
        }
      ],
      "stateMutability": "view",
      "type": "function"
    },
    {
      "inputs": [],
      "name": "getContractBalance",
      "outputs": [
        {
          "internalType": "uint256",
          "name": "",
          "type": "uint256"
        }
      ],
      "stateMutability": "view",
      "type": "function"
    },
    {
      "inputs": [
        {
          "internalType": "uint256",
          "name": "_requestno",
          "type": "uint256"
        }
      ],
      "name": "makePayment",
      "outputs": [],
      "stateMutability": "nonpayable",
      "type": "function"
    },
    {
      "inputs": [],
      "name": "minContribution",
      "outputs": [
        {
          "internalType": "uint256",
          "name": "",
          "type": "uint256"
        }
      ],
      "stateMutability": "view",
      "type": "function"
    },
    {
      "inputs": [],
      "name": "noOfContributors",
      "outputs": [
        {
          "internalType": "uint256",
          "name": "",
          "type": "uint256"
        }
      ],
      "stateMutability": "view",
      "type": "function"
    },
    {
      "inputs": [],
      "name": "numRequest",
      "outputs": [
        {
          "internalType": "uint256",
          "name": "",
          "type": "uint256"
        }
      ],
      "stateMutability": "view",
      "type": "function"
    },
    {
      "inputs": [],
      "name": "raiseAmount",
      "outputs": [
        {
          "internalType": "uint256",
          "name": "",
          "type": "uint256"
        }
      ],
      "stateMutability": "view",
      "type": "function"
    },
    {
      "inputs": [],
      "name": "refund",
      "outputs": [],
      "stateMutability": "nonpayable",
      "type": "function"
    },
    {
      "inputs": [
        {
          "internalType": "uint256",
          "name": "",
          "type": "uint256"
        }
      ],
      "name": "requests",
      "outputs": [
        {
          "internalType": "string",
          "name": "description",
          "type": "string"
        },
        {
          "internalType": "address payable",
          "name": "recepient",
          "type": "address"
        },
        {
          "internalType": "uint256",
          "name": "value",
          "type": "uint256"
        },
        {
          "internalType": "bool",
          "name": "isCompleted",
          "type": "bool"
        },
        {
          "internalType": "uint256",
          "name": "notOfVoters",
          "type": "uint256"
        }
      ],
      "stateMutability": "view",
      "type": "function"
    },
    {
      "inputs": [],
      "name": "sendEth",
      "outputs": [],
      "stateMutability": "payable",
      "type": "function"
    },
    {
      "inputs": [],
      "name": "target",
      "outputs": [
        {
          "internalType": "uint256",
          "name": "",
          "type": "uint256"
        }
      ],
      "stateMutability": "view",
      "type": "function"
    },
    {
      "inputs": [
        {
          "internalType": "uint256",
          "name": "_requestno",
          "type": "uint256"
        }
      ],
      "name": "voteRequest",
      "outputs": [],
      "stateMutability": "nonpayable",
      "type": "function"
    }
  ],
  "bytecode": "0x60806040523480156200001157600080fd5b50604051620017e0380380620017e08339818101604052810190620000379190620000e3565b8160048190555080426200004c919062000159565b600381905550606460028190555033600160006101000a81548173ffffffffffffffffffffffffffffffffffffffff021916908373ffffffffffffffffffffffffffffffffffffffff1602179055505050620001b6565b600080fd5b6000819050919050565b620000bd81620000a8565b8114620000c957600080fd5b50565b600081519050620000dd81620000b2565b92915050565b60008060408385031215620000fd57620000fc620000a3565b5b60006200010d85828601620000cc565b92505060206200012085828601620000cc565b9150509250929050565b7f4e487b7100000000000000000000000000000000000000000000000000000000600052601160045260246000fd5b60006200016682620000a8565b91506200017383620000a8565b9250827fffffffffffffffffffffffffffffffffffffffffffffffffffffffffffffffff03821115620001ab57620001aa6200012a565b5b828201905092915050565b61161a80620001c66000396000f3fe6080604052600436106100e85760003560e01c80636f9fb98a1161008a578063b1b1643111610059578063b1b16431146102a1578063d4b83992146102cc578063db638f0b146102f7578063dfe3832a14610322576100e8565b80636f9fb98a146101df57806378357e531461020a57806381d12c5814610235578063aaffadf314610276576100e8565b80634cb6f4a5116100c65780634cb6f4a51461014b5780634e260f6f146101745780635114cb521461019f578063590e1ae3146101c8576100e8565b806306e99fef146100ed5780631b16bb5c146100f757806329dcb0cf14610120575b600080fd5b6100f561035f565b005b34801561010357600080fd5b5061011e60048036038101906101199190610e68565b6104b7565b005b34801561012c57600080fd5b5061013561057a565b6040516101429190610ee6565b60405180910390f35b34801561015757600080fd5b50610172600480360381019061016d9190610f01565b610580565b005b34801561018057600080fd5b50610189610725565b6040516101969190610ee6565b60405180910390f35b3480156101ab57600080fd5b506101c660048036038101906101c19190610f01565b61072b565b005b3480156101d457600080fd5b506101dd61091f565b005b3480156101eb57600080fd5b506101f4610a8e565b6040516102019190610ee6565b60405180910390f35b34801561021657600080fd5b5061021f610a96565b60405161022c9190610f4f565b60405180910390f35b34801561024157600080fd5b5061025c60048036038101906102579190610f01565b610abc565b60405161026d95949392919061101c565b60405180910390f35b34801561028257600080fd5b5061028b610ba7565b6040516102989190610ee6565b60405180910390f35b3480156102ad57600080fd5b506102b6610bad565b6040516102c39190610ee6565b60405180910390f35b3480156102d857600080fd5b506102e1610bb3565b6040516102ee9190610ee6565b60405180910390f35b34801561030357600080fd5b5061030c610bb9565b6040516103199190610ee6565b60405180910390f35b34801561032e57600080fd5b50610349600480360381019061034491906110a2565b610bbf565b6040516103569190610ee6565b60405180910390f35b60035442106103a3576040517f08c379a000000000000000000000000000000000000000000000000000000000815260040161039a9061111b565b60405180910390fd5b60643410156103e7576040517f08c379a00000000000000000000000000000000000000000000000000000000081526004016103de90611187565b60405180910390fd5b60008060003373ffffffffffffffffffffffffffffffffffffffff1673ffffffffffffffffffffffffffffffffffffffff1681526020019081526020016000205414156104475760066000815480929190610441906111d6565b91905055505b346000803373ffffffffffffffffffffffffffffffffffffffff1673ffffffffffffffffffffffffffffffffffffffff1681526020019081526020016000206000828254610495919061121f565b9250508190555034600560008282546104ae919061121f565b92505081905550565b60006007600060085481526020019081526020016000209050600860008154809291906104e3906111d6565b919050555083816000019080519060200190610500929190610bd7565b50828160010160006101000a81548173ffffffffffffffffffffffffffffffffffffffff021916908373ffffffffffffffffffffffffffffffffffffffff16021790555081816002018190555060008160030160006101000a81548160ff0219169083151502179055506000816004018190555050505050565b60035481565b60008060003373ffffffffffffffffffffffffffffffffffffffff1673ffffffffffffffffffffffffffffffffffffffff1681526020019081526020016000205411610601576040517f08c379a00000000000000000000000000000000000000000000000000000000081526004016105f8906112c1565b60405180910390fd5b6000600760008381526020019081526020016000209050600015158160050160003373ffffffffffffffffffffffffffffffffffffffff1673ffffffffffffffffffffffffffffffffffffffff16815260200190815260200160002060009054906101000a900460ff161515146106ad576040517f08c379a00000000000000000000000000000000000000000000000000000000081526004016106a49061132d565b60405180910390fd5b60018160050160003373ffffffffffffffffffffffffffffffffffffffff1673ffffffffffffffffffffffffffffffffffffffff16815260200190815260200160002060006101000a81548160ff02191690831515021790555080600401600081548092919061071c906111d6565b91905055505050565b60065481565b600160009054906101000a900473ffffffffffffffffffffffffffffffffffffffff1673ffffffffffffffffffffffffffffffffffffffff163373ffffffffffffffffffffffffffffffffffffffff16146107bb576040517f08c379a00000000000000000000000000000000000000000000000000000000081526004016107b2906113bf565b60405180910390fd5b60045460055410156107cc57600080fd5b6000600760008381526020019081526020016000209050600015158160030160009054906101000a900460ff1615151461083b576040517f08c379a00000000000000000000000000000000000000000000000000000000081526004016108329061142b565b60405180910390fd5b600260065461084a919061147a565b81600401541161088f576040517f08c379a0000000000000000000000000000000000000000000000000000000008152600401610886906114f7565b60405180910390fd5b8060010160009054906101000a900473ffffffffffffffffffffffffffffffffffffffff1673ffffffffffffffffffffffffffffffffffffffff166108fc82600201549081150290604051600060405180830381858888f193505050501580156108fd573d6000803e3d6000fd5b5060018160030160006101000a81548160ff0219169083151502179055505050565b600354421180156109335750600454600554105b610972576040517f08c379a000000000000000000000000000000000000000000000000000000000815260040161096990611563565b60405180910390fd5b60008060003373ffffffffffffffffffffffffffffffffffffffff1673ffffffffffffffffffffffffffffffffffffffff16815260200190815260200160002054116109bd57600080fd5b60003390508073ffffffffffffffffffffffffffffffffffffffff166108fc6000803373ffffffffffffffffffffffffffffffffffffffff1673ffffffffffffffffffffffffffffffffffffffff168152602001908152602001600020549081150290604051600060405180830381858888f19350505050158015610a46573d6000803e3d6000fd5b5060008060003373ffffffffffffffffffffffffffffffffffffffff1673ffffffffffffffffffffffffffffffffffffffff1681526020019081526020016000208190555050565b600047905090565b600160009054906101000a900473ffffffffffffffffffffffffffffffffffffffff1681565b6007602052806000526040600020600091509050806000018054610adf906115b2565b80601f0160208091040260200160405190810160405280929190818152602001828054610b0b906115b2565b8015610b585780601f10610b2d57610100808354040283529160200191610b58565b820191906000526020600020905b815481529060010190602001808311610b3b57829003601f168201915b5050505050908060010160009054906101000a900473ffffffffffffffffffffffffffffffffffffffff16908060020154908060030160009054906101000a900460ff16908060040154905085565b60025481565b60085481565b60045481565b60055481565b60006020528060005260406000206000915090505481565b828054610be3906115b2565b90600052602060002090601f016020900481019282610c055760008555610c4c565b82601f10610c1e57805160ff1916838001178555610c4c565b82800160010185558215610c4c579182015b82811115610c4b578251825591602001919060010190610c30565b5b509050610c599190610c5d565b5090565b5b80821115610c76576000816000905550600101610c5e565b5090565b6000604051905090565b600080fd5b600080fd5b600080fd5b600080fd5b6000601f19601f8301169050919050565b7f4e487b7100000000000000000000000000000000000000000000000000000000600052604160045260246000fd5b610ce182610c98565b810181811067ffffffffffffffff82111715610d0057610cff610ca9565b5b80604052505050565b6000610d13610c7a565b9050610d1f8282610cd8565b919050565b600067ffffffffffffffff821115610d3f57610d3e610ca9565b5b610d4882610c98565b9050602081019050919050565b82818337600083830152505050565b6000610d77610d7284610d24565b610d09565b905082815260208101848484011115610d9357610d92610c93565b5b610d9e848285610d55565b509392505050565b600082601f830112610dbb57610dba610c8e565b5b8135610dcb848260208601610d64565b91505092915050565b600073ffffffffffffffffffffffffffffffffffffffff82169050919050565b6000610dff82610dd4565b9050919050565b610e0f81610df4565b8114610e1a57600080fd5b50565b600081359050610e2c81610e06565b92915050565b6000819050919050565b610e4581610e32565b8114610e5057600080fd5b50565b600081359050610e6281610e3c565b92915050565b600080600060608486031215610e8157610e80610c84565b5b600084013567ffffffffffffffff811115610e9f57610e9e610c89565b5b610eab86828701610da6565b9350506020610ebc86828701610e1d565b9250506040610ecd86828701610e53565b9150509250925092565b610ee081610e32565b82525050565b6000602082019050610efb6000830184610ed7565b92915050565b600060208284031215610f1757610f16610c84565b5b6000610f2584828501610e53565b91505092915050565b6000610f3982610dd4565b9050919050565b610f4981610f2e565b82525050565b6000602082019050610f646000830184610f40565b92915050565b600081519050919050565b600082825260208201905092915050565b60005b83811015610fa4578082015181840152602081019050610f89565b83811115610fb3576000848401525b50505050565b6000610fc482610f6a565b610fce8185610f75565b9350610fde818560208601610f86565b610fe781610c98565b840191505092915050565b610ffb81610df4565b82525050565b60008115159050919050565b61101681611001565b82525050565b600060a08201905081810360008301526110368188610fb9565b90506110456020830187610ff2565b6110526040830186610ed7565b61105f606083018561100d565b61106c6080830184610ed7565b9695505050505050565b61107f81610f2e565b811461108a57600080fd5b50565b60008135905061109c81611076565b92915050565b6000602082840312156110b8576110b7610c84565b5b60006110c68482850161108d565b91505092915050565b7f446561646c696e65206973207061737365640000000000000000000000000000600082015250565b6000611105601283610f75565b9150611110826110cf565b602082019050919050565b60006020820190508181036000830152611134816110f8565b9050919050565b7f6d696e20636f6e747269627574696f6e206973206e6f74206d65740000000000600082015250565b6000611171601b83610f75565b915061117c8261113b565b602082019050919050565b600060208201905081810360008301526111a081611164565b9050919050565b7f4e487b7100000000000000000000000000000000000000000000000000000000600052601160045260246000fd5b60006111e182610e32565b91507fffffffffffffffffffffffffffffffffffffffffffffffffffffffffffffffff821415611214576112136111a7565b5b600182019050919050565b600061122a82610e32565b915061123583610e32565b9250827fffffffffffffffffffffffffffffffffffffffffffffffffffffffffffffffff0382111561126a576112696111a7565b5b828201905092915050565b7f796f7520617265206e6f7420636f6e7472696275746f72000000000000000000600082015250565b60006112ab601783610f75565b91506112b682611275565b602082019050919050565b600060208201905081810360008301526112da8161129e565b9050919050565b7f796f7520766f74656420616c7265616479000000000000000000000000000000600082015250565b6000611317601183610f75565b9150611322826112e1565b602082019050919050565b600060208201905081810360008301526113468161130a565b9050919050565b7f4f6e6c79204d616e616765722063616e2063616c6c207468652066756e63746960008201527f6f6e000000000000000000000000000000000000000000000000000000000000602082015250565b60006113a9602283610f75565b91506113b48261134d565b604082019050919050565b600060208201905081810360008301526113d88161139c565b9050919050565b7f416c726561647920636f6d706c65746564000000000000000000000000000000600082015250565b6000611415601183610f75565b9150611420826113df565b602082019050919050565b6000602082019050818103600083015261144481611408565b9050919050565b7f4e487b7100000000000000000000000000000000000000000000000000000000600052601260045260246000fd5b600061148582610e32565b915061149083610e32565b9250826114a05761149f61144b565b5b828204905092915050565b7f4d616a6f72697479206e6f74206d657400000000000000000000000000000000600082015250565b60006114e1601083610f75565b91506114ec826114ab565b602082019050919050565b60006020820190508181036000830152611510816114d4565b9050919050565b7f796f752061726520696e656c696769626c650000000000000000000000000000600082015250565b600061154d601283610f75565b915061155882611517565b602082019050919050565b6000602082019050818103600083015261157c81611540565b9050919050565b7f4e487b7100000000000000000000000000000000000000000000000000000000600052602260045260246000fd5b600060028204905060018216806115ca57607f821691505b602082108114156115de576115dd611583565b5b5091905056fea2646970667358221220fe6587a10d434f73f9c3c67c067e399198cd3f70e468b08d7ab05c852a6e9cee64736f6c63430008090033",
  "linkReferences": {},
  "deployedLinkReferences": {}
}